{
  "transactions": [
    {
      "hash": "0x2b57cd20ae82cd449ae231681651e49fa8f5d8013dea727c4926ffd9be597e26",
      "transactionType": "CALL",
      "contractName": null,
      "contractAddress": "0x779877a7b0d9e8603169ddbd7836e478b4624789",
      "function": "transferAndCall(address,uint256,bytes)",
      "arguments": [
        "0x9DdfaCa8183c41ad55329BdeeD9F6A8d53168B1B",
        "3000000000000000000",
        "0x38f90be9bbe1ac77bf581b8b61164428af7d6aa4402157e26f1a1743b3c66694"
      ],
      "transaction": {
        "from": "0x95b013ca60e7b7cb219ffd59a8ce5b91b8af8096",
        "to": "0x779877a7b0d9e8603169ddbd7836e478b4624789",
        "gas": "0x14cbb",
        "value": "0x0",
        "input": "0x4000aea00000000000000000000000009ddfaca8183c41ad55329bdeed9f6a8d53168b1b00000000000000000000000000000000000000000000000029a2241af62c00000000000000000000000000000000000000000000000000000000000000000060000000000000000000000000000000000000000000000000000000000000002038f90be9bbe1ac77bf581b8b61164428af7d6aa4402157e26f1a1743b3c66694",
        "nonce": "0x4b",
        "chainId": "0xaa36a7"
      },
      "additionalContracts": [],
      "isFixedGasLimit": false
    }
  ],
  "receipts": [
    {
      "status": "0x1",
      "cumulativeGasUsed": "0x9e9484",
      "logs": [
        {
          "address": "0x779877a7b0d9e8603169ddbd7836e478b4624789",
          "topics": [
            "0xddf252ad1be2c89b69c2b068fc378daa952ba7f163c4a11628f55a4df523b3ef",
            "0x00000000000000000000000095b013ca60e7b7cb219ffd59a8ce5b91b8af8096",
            "0x0000000000000000000000009ddfaca8183c41ad55329bdeed9f6a8d53168b1b"
          ],
          "data": "0x00000000000000000000000000000000000000000000000029a2241af62c0000",
          "blockHash": "0x47b2c36124e43eaf8a36082d37e55537b64a0005e7dd196a1f3ccf6562c4a1af",
          "blockNumber": "0x904da4",
          "blockTimestamp": "0x68f71b24",
          "transactionHash": "0x2b57cd20ae82cd449ae231681651e49fa8f5d8013dea727c4926ffd9be597e26",
          "transactionIndex": "0xab",
          "logIndex": "0x6c",
          "removed": false
        },
        {
          "address": "0x779877a7b0d9e8603169ddbd7836e478b4624789",
          "topics": [
            "0xe19260aff97b920c7df27010903aeb9c8d2be5d310a2c67824cf3f15396e4c16",
            "0x00000000000000000000000095b013ca60e7b7cb219ffd59a8ce5b91b8af8096",
            "0x0000000000000000000000009ddfaca8183c41ad55329bdeed9f6a8d53168b1b"
          ],
          "data": "0x00000000000000000000000000000000000000000000000029a2241af62c00000000000000000000000000000000000000000000000000000000000000000040000000000000000000000000000000000000000000000000000000000000002038f90be9bbe1ac77bf581b8b61164428af7d6aa4402157e26f1a1743b3c66694",
          "blockHash": "0x47b2c36124e43eaf8a36082d37e55537b64a0005e7dd196a1f3ccf6562c4a1af",
          "blockNumber": "0x904da4",
          "blockTimestamp": "0x68f71b24",
          "transactionHash": "0x2b57cd20ae82cd449ae231681651e49fa8f5d8013dea727c4926ffd9be597e26",
          "transactionIndex": "0xab",
          "logIndex": "0x6d",
          "removed": false
        },
        {
          "address": "0x9ddfaca8183c41ad55329bdeed9f6a8d53168b1b",
          "topics": [
            "0x1ced9348ff549fceab2ac57cd3a9de38edaaab274b725ee82c23e8fc8c4eec7a",
            "0x38f90be9bbe1ac77bf581b8b61164428af7d6aa4402157e26f1a1743b3c66694"
          ],
          "data": "0x0000000000000000000000000000000000000000000000004563918244f400000000000000000000000000000000000000000000000000006f05b59d3b200000",
          "blockHash": "0x47b2c36124e43eaf8a36082d37e55537b64a0005e7dd196a1f3ccf6562c4a1af",
          "blockNumber": "0x904da4",
          "blockTimestamp": "0x68f71b24",
          "transactionHash": "0x2b57cd20ae82cd449ae231681651e49fa8f5d8013dea727c4926ffd9be597e26",
          "transactionIndex": "0xab",
          "logIndex": "0x6e",
          "removed": false
        }
      ],
      "logsBloom": "0x00000004000000000000000002000000000000000024000000000000020100000000000000000000000000000000000000000000000000000000000000000000000000001000000000000008000000000000000000000000000020000020000008000000000000000000000000000000000000000000000000000010000040000000000000000000000000110000800000000020000000000000000000000000000000000000000000000000010000000000000000000000010004000000000000000002000000000000000000000000000000000000000100000000000000000010000000000000800000000000000000000000000000000000000000000000",
      "type": "0x2",
      "transactionHash": "0x2b57cd20ae82cd449ae231681651e49fa8f5d8013dea727c4926ffd9be597e26",
      "transactionIndex": "0xab",
      "blockHash": "0x47b2c36124e43eaf8a36082d37e55537b64a0005e7dd196a1f3ccf6562c4a1af",
      "blockNumber": "0x904da4",
      "gasUsed": "0xf0e5",
      "effectiveGasPrice": "0xf4249",
      "from": "0x95b013ca60e7b7cb219ffd59a8ce5b91b8af8096",
      "to": "0x779877a7b0d9e8603169ddbd7836e478b4624789",
      "contractAddress": null
    }
  ],
  "libraries": [],
  "pending": [],
  "returns": {},
  "timestamp": 1761024805356,
  "chain": 11155111,
  "commit": null
}