{
  "transactions": [
    {
      "hash": "0xa5cd2783b130c688fcf00e05f45ae0745f9cd58e37b34f7b7face160242000ec",
      "transactionType": "CALL",
      "contractName": null,
      "contractAddress": "0x9ddfaca8183c41ad55329bdeed9f6a8d53168b1b",
      "function": "addConsumer(uint256,address)",
      "arguments": [
        "25769546660456358907653104201751991402206662328017673317749432922810500933268",
        "0x9f39e2Ab383572947b1b5CDe8A8624C099fb738c"
      ],
      "transaction": {
        "from": "0x95b013ca60e7b7cb219ffd59a8ce5b91b8af8096",
        "to": "0x9ddfaca8183c41ad55329bdeed9f6a8d53168b1b",
        "gas": "0x21fc9",
        "value": "0x0",
        "input": "0xbec4c08c38f90be9bbe1ac77bf581b8b61164428af7d6aa4402157e26f1a1743b3c666940000000000000000000000009f39e2ab383572947b1b5cde8a8624c099fb738c",
        "nonce": "0x4d",
        "chainId": "0xaa36a7"
      },
      "additionalContracts": [],
      "isFixedGasLimit": false
    }
  ],
  "receipts": [
    {
      "status": "0x1",
      "cumulativeGasUsed": "0xfb8d57",
      "logs": [
        {
          "address": "0x9ddfaca8183c41ad55329bdeed9f6a8d53168b1b",
          "topics": [
            "0x1e980d04aa7648e205713e5e8ea3808672ac163d10936d36f91b2c88ac1575e1",
            "0x38f90be9bbe1ac77bf581b8b61164428af7d6aa4402157e26f1a1743b3c66694"
          ],
          "data": "0x0000000000000000000000009f39e2ab383572947b1b5cde8a8624c099fb738c",
          "blockHash": "0x114be00b21a7be9ff1eb2fd69f3650dbcaabdd33f700e5d4b91191f8c1869a2f",
          "blockNumber": "0x90533d",
          "blockTimestamp": "0x68f765ac",
          "transactionHash": "0xa5cd2783b130c688fcf00e05f45ae0745f9cd58e37b34f7b7face160242000ec",
          "transactionIndex": "0x62",
          "logIndex": "0x78",
          "removed": false
        }
      ],
      "logsBloom": "0x00000000000000000000000002000080000000000024000000000000000000000000000000000000000000000000000000000000000000000000000000000000000000000000000000000000000000000000000000000001000000000000000008000000000000000000000000000000000000000000000000002000000000000000000000000000000000110000000000000000000000000000000000000000000000000000000000000000000000000000000000000000000000000000000000000000000000000000000000000000000000000000000000000000000000000000000000000000000000000000000000000000000000000000000000000000",
      "type": "0x2",
      "transactionHash": "0xa5cd2783b130c688fcf00e05f45ae0745f9cd58e37b34f7b7face160242000ec",
      "transactionIndex": "0x62",
      "blockHash": "0x114be00b21a7be9ff1eb2fd69f3650dbcaabdd33f700e5d4b91191f8c1869a2f",
      "blockNumber": "0x90533d",
      "gasUsed": "0x173d2",
      "effectiveGasPrice": "0xf424b",
      "from": "0x95b013ca60e7b7cb219ffd59a8ce5b91b8af8096",
      "to": "0x9ddfaca8183c41ad55329bdeed9f6a8d53168b1b",
      "contractAddress": null
    }
  ],
  "libraries": [],
  "pending": [],
  "returns": {},
  "timestamp": 1761043886132,
  "chain": 11155111,
  "commit": null
}